{
  "_format": "hh-sol-artifact-1",
  "contractName": "TodoList",
  "sourceName": "contracts/TodoList.sol",
  "abi": [
    {
      "inputs": [],
      "stateMutability": "nonpayable",
      "type": "constructor"
    },
    {
      "anonymous": false,
      "inputs": [
        {
          "indexed": false,
          "internalType": "uint256",
          "name": "id",
          "type": "uint256"
        },
        {
          "indexed": false,
          "internalType": "string",
          "name": "content",
          "type": "string"
        },
        {
          "indexed": false,
          "internalType": "bool",
          "name": "completed",
          "type": "bool"
        }
      ],
      "name": "TodoAdded",
      "type": "event"
    },
    {
      "anonymous": false,
      "inputs": [
        {
          "indexed": false,
          "internalType": "uint256",
          "name": "id",
          "type": "uint256"
        }
      ],
      "name": "TodoItemRemoved",
      "type": "event"
    },
    {
      "anonymous": false,
      "inputs": [
        {
          "indexed": false,
          "internalType": "uint256",
          "name": "id",
          "type": "uint256"
        },
        {
          "indexed": false,
          "internalType": "bool",
          "name": "completed",
          "type": "bool"
        }
      ],
      "name": "TodoToggled",
      "type": "event"
    },
    {
      "inputs": [
        {
          "internalType": "string",
          "name": "_content",
          "type": "string"
        }
      ],
      "name": "addToDoItem",
      "outputs": [],
      "stateMutability": "nonpayable",
      "type": "function"
    },
    {
      "inputs": [
        {
          "internalType": "uint256",
          "name": "_id",
          "type": "uint256"
        }
      ],
      "name": "removeItem",
      "outputs": [],
      "stateMutability": "nonpayable",
      "type": "function"
    },
    {
      "inputs": [
        {
          "internalType": "uint256",
          "name": "id",
          "type": "uint256"
        }
      ],
      "name": "returnToItem",
      "outputs": [
        {
          "components": [
            {
              "internalType": "uint256",
              "name": "id",
              "type": "uint256"
            },
            {
              "internalType": "string",
              "name": "content",
              "type": "string"
            },
            {
              "internalType": "bool",
              "name": "completed",
              "type": "bool"
            }
          ],
          "internalType": "struct TodoList.Task",
          "name": "",
          "type": "tuple"
        }
      ],
      "stateMutability": "view",
      "type": "function"
    },
    {
      "inputs": [],
      "name": "taskCounter",
      "outputs": [
        {
          "internalType": "uint256",
          "name": "",
          "type": "uint256"
        }
      ],
      "stateMutability": "view",
      "type": "function"
    },
    {
      "inputs": [
        {
          "internalType": "uint256",
          "name": "",
          "type": "uint256"
        }
      ],
      "name": "tasks",
      "outputs": [
        {
          "internalType": "uint256",
          "name": "id",
          "type": "uint256"
        },
        {
          "internalType": "string",
          "name": "content",
          "type": "string"
        },
        {
          "internalType": "bool",
          "name": "completed",
          "type": "bool"
        }
      ],
      "stateMutability": "view",
      "type": "function"
    },
    {
      "inputs": [
        {
          "internalType": "uint256",
          "name": "_id",
          "type": "uint256"
        }
      ],
      "name": "toggleItem",
      "outputs": [],
      "stateMutability": "nonpayable",
      "type": "function"
    }
  ],
  "bytecode": "0x608060405260006001553480156200001657600080fd5b50620000626040518060400160405280601481526020017f4465706c6f79696e67206120546f646f4c6973740000000000000000000000008152506200006860201b620007c91760201c565b620001fc565b62000108816040516024016200007f919062000175565b6040516020818303038152906040527f41304fac000000000000000000000000000000000000000000000000000000007bffffffffffffffffffffffffffffffffffffffffffffffffffffffff19166020820180517bffffffffffffffffffffffffffffffffffffffffffffffffffffffff83818316178352505050506200010b60201b60201c565b50565b60008151905060006a636f6e736f6c652e6c6f679050602083016000808483855afa5050505050565b6000620001418262000199565b6200014d8185620001a4565b93506200015f818560208601620001b5565b6200016a81620001eb565b840191505092915050565b6000602082019050818103600083015262000191818462000134565b905092915050565b600081519050919050565b600082825260208201905092915050565b60005b83811015620001d5578082015181840152602081019050620001b8565b83811115620001e5576000848401525b50505050565b6000601f19601f8301169050919050565b610ed8806200020c6000396000f3fe608060405234801561001057600080fd5b50600436106100625760003560e01c80631fcb98da14610067578063470a8aef1461009757806358671730146100b357806371329171146100d15780638d977672146100ed578063ab6348621461011f575b600080fd5b610081600480360381019061007c9190610a4f565b61013b565b60405161008e9190610b98565b60405180910390f35b6100b160048036038101906100ac9190610a0e565b6102cf565b005b6100bb6103bc565b6040516100c89190610bba565b60405180910390f35b6100eb60048036038101906100e69190610a4f565b6103c2565b005b61010760048036038101906101029190610a4f565b610504565b60405161011693929190610bfe565b60405180910390f35b61013960048036038101906101349190610a4f565b6105d3565b005b61014361088b565b60005b6001548110156102c857826000828154811061018b577f4e487b7100000000000000000000000000000000000000000000000000000000600052603260045260246000fd5b90600052602060002090600302016000015414156102b557600081815481106101dd577f4e487b7100000000000000000000000000000000000000000000000000000000600052603260045260246000fd5b90600052602060002090600302016040518060600160405290816000820154815260200160018201805461021090610d41565b80601f016020809104026020016040519081016040528092919081815260200182805461023c90610d41565b80156102895780601f1061025e57610100808354040283529160200191610289565b820191906000526020600020905b81548152906001019060200180831161026c57829003601f168201915b505050505081526020016002820160009054906101000a900460ff1615151515815250509150506102ca565b80806102c090610da4565b915050610146565b505b919050565b6000604051806060016040528060015481526020018381526020016000151581525090806001815401808255809150506001900390600052602060002090600302016000909190919091506000820151816000015560208201518160010190805190602001906103409291906108ae565b5060408201518160020160006101000a81548160ff02191690831515021790555050507f1eea806ee4816ea054c4e49a7846de9d47bd348046dfaa28281c809dd10e269c60015482600060405161039993929190610bfe565b60405180910390a1600160008154809291906103b490610da4565b919050555050565b60015481565b60005b6001548110156104b157816000828154811061040a577f4e487b7100000000000000000000000000000000000000000000000000000000600052603260045260246000fd5b906000526020600020906003020160000154141561049e576000818154811061045c577f4e487b7100000000000000000000000000000000000000000000000000000000600052603260045260246000fd5b90600052602060002090600302016000808201600090556001820160006104839190610934565b6002820160006101000a81549060ff021916905550506104b1565b80806104a990610da4565b9150506103c5565b50600160008154809291906104c590610d17565b91905055507f30588387456ed68f32361d16558669a2b11f2b2a8c7a3a3d3f7991437f8c51ca816040516104f99190610bba565b60405180910390a150565b6000818154811061051457600080fd5b906000526020600020906003020160009150905080600001549080600101805461053d90610d41565b80601f016020809104026020016040519081016040528092919081815260200182805461056990610d41565b80156105b65780601f1061058b576101008083540402835291602001916105b6565b820191906000526020600020905b81548152906001019060200180831161059957829003601f168201915b5050505050908060020160009054906101000a900460ff16905083565b600080828154811061060e577f4e487b7100000000000000000000000000000000000000000000000000000000600052603260045260246000fd5b90600052602060002090600302016040518060600160405290816000820154815260200160018201805461064190610d41565b80601f016020809104026020016040519081016040528092919081815260200182805461066d90610d41565b80156106ba5780601f1061068f576101008083540402835291602001916106ba565b820191906000526020600020905b81548152906001019060200180831161069d57829003601f168201915b505050505081526020016002820160009054906101000a900460ff16151515158152505090508060400151158160400190151590811515815250508060008381548110610730577f4e487b7100000000000000000000000000000000000000000000000000000000600052603260045260246000fd5b90600052602060002090600302016000820151816000015560208201518160010190805190602001906107649291906108ae565b5060408201518160020160006101000a81548160ff0219169083151502179055509050507fb50a16255ec610e07f1e0b3a7b9aa1d91e047f81010699695a0cbea58f5d2ba08282604001516040516107bd929190610bd5565b60405180910390a15050565b61085f816040516024016107dd9190610b76565b6040516020818303038152906040527f41304fac000000000000000000000000000000000000000000000000000000007bffffffffffffffffffffffffffffffffffffffffffffffffffffffff19166020820180517bffffffffffffffffffffffffffffffffffffffffffffffffffffffff8381831617835250505050610862565b50565b60008151905060006a636f6e736f6c652e6c6f679050602083016000808483855afa5050505050565b604051806060016040528060008152602001606081526020016000151581525090565b8280546108ba90610d41565b90600052602060002090601f0160209004810192826108dc5760008555610923565b82601f106108f557805160ff1916838001178555610923565b82800160010185558215610923579182015b82811115610922578251825591602001919060010190610907565b5b5090506109309190610974565b5090565b50805461094090610d41565b6000825580601f106109525750610971565b601f0160209004906000526020600020908101906109709190610974565b5b50565b5b8082111561098d576000816000905550600101610975565b5090565b60006109a461099f84610c61565b610c3c565b9050828152602081018484840111156109bc57600080fd5b6109c7848285610cd5565b509392505050565b600082601f8301126109e057600080fd5b81356109f0848260208601610991565b91505092915050565b600081359050610a0881610e8b565b92915050565b600060208284031215610a2057600080fd5b600082013567ffffffffffffffff811115610a3a57600080fd5b610a46848285016109cf565b91505092915050565b600060208284031215610a6157600080fd5b6000610a6f848285016109f9565b91505092915050565b610a8181610cbf565b82525050565b610a9081610cbf565b82525050565b6000610aa182610c92565b610aab8185610c9d565b9350610abb818560208601610ce4565b610ac481610e7a565b840191505092915050565b6000610ada82610c92565b610ae48185610cae565b9350610af4818560208601610ce4565b610afd81610e7a565b840191505092915050565b6000606083016000830151610b206000860182610b58565b5060208301518482036020860152610b388282610a96565b9150506040830151610b4d6040860182610a78565b508091505092915050565b610b6181610ccb565b82525050565b610b7081610ccb565b82525050565b60006020820190508181036000830152610b908184610acf565b905092915050565b60006020820190508181036000830152610bb28184610b08565b905092915050565b6000602082019050610bcf6000830184610b67565b92915050565b6000604082019050610bea6000830185610b67565b610bf76020830184610a87565b9392505050565b6000606082019050610c136000830186610b67565b8181036020830152610c258185610acf565b9050610c346040830184610a87565b949350505050565b6000610c46610c57565b9050610c528282610d73565b919050565b6000604051905090565b600067ffffffffffffffff821115610c7c57610c7b610e4b565b5b610c8582610e7a565b9050602081019050919050565b600081519050919050565b600082825260208201905092915050565b600082825260208201905092915050565b60008115159050919050565b6000819050919050565b82818337600083830152505050565b60005b83811015610d02578082015181840152602081019050610ce7565b83811115610d11576000848401525b50505050565b6000610d2282610ccb565b91506000821415610d3657610d35610ded565b5b600182039050919050565b60006002820490506001821680610d5957607f821691505b60208210811415610d6d57610d6c610e1c565b5b50919050565b610d7c82610e7a565b810181811067ffffffffffffffff82111715610d9b57610d9a610e4b565b5b80604052505050565b6000610daf82610ccb565b91507fffffffffffffffffffffffffffffffffffffffffffffffffffffffffffffffff821415610de257610de1610ded565b5b600182019050919050565b7f4e487b7100000000000000000000000000000000000000000000000000000000600052601160045260246000fd5b7f4e487b7100000000000000000000000000000000000000000000000000000000600052602260045260246000fd5b7f4e487b7100000000000000000000000000000000000000000000000000000000600052604160045260246000fd5b6000601f19601f8301169050919050565b610e9481610ccb565b8114610e9f57600080fd5b5056fea26469706673582212209eceee9b43a0377cb03c27e27357cbd9efc8a83a725300edaef313ec3bbe7bc464736f6c63430008040033",
  "linkReferences": {},
  "deployedLinkReferences": {}
}