{
  "_format": "hh-sol-artifact-1",
  "contractName": "TodoList",
  "sourceName": "contracts/TodoList.sol",
  "abi": [
    {
      "inputs": [],
      "stateMutability": "nonpayable",
      "type": "constructor"
    },
    {
      "anonymous": false,
      "inputs": [
        {
          "indexed": false,
          "internalType": "uint256",
          "name": "id",
          "type": "uint256"
        },
        {
          "indexed": false,
          "internalType": "string",
          "name": "content",
          "type": "string"
        },
        {
          "indexed": false,
          "internalType": "bool",
          "name": "completed",
          "type": "bool"
        }
      ],
      "name": "TodoAdded",
      "type": "event"
    },
    {
      "anonymous": false,
      "inputs": [
        {
          "indexed": false,
          "internalType": "uint256",
          "name": "id",
          "type": "uint256"
        },
        {
          "indexed": false,
          "internalType": "bool",
          "name": "completed",
          "type": "bool"
        }
      ],
      "name": "TodoToggled",
      "type": "event"
    },
    {
      "inputs": [
        {
          "internalType": "string",
          "name": "_content",
          "type": "string"
        }
      ],
      "name": "addToDoItem",
      "outputs": [],
      "stateMutability": "nonpayable",
      "type": "function"
    },
    {
      "inputs": [
        {
          "internalType": "uint256",
          "name": "id",
          "type": "uint256"
        }
      ],
      "name": "returnToItem",
      "outputs": [
        {
          "components": [
            {
              "internalType": "uint256",
              "name": "id",
              "type": "uint256"
            },
            {
              "internalType": "string",
              "name": "content",
              "type": "string"
            },
            {
              "internalType": "bool",
              "name": "completed",
              "type": "bool"
            }
          ],
          "internalType": "struct TodoList.Task",
          "name": "",
          "type": "tuple"
        }
      ],
      "stateMutability": "view",
      "type": "function"
    },
    {
      "inputs": [],
      "name": "taskCounter",
      "outputs": [
        {
          "internalType": "uint256",
          "name": "",
          "type": "uint256"
        }
      ],
      "stateMutability": "view",
      "type": "function"
    },
    {
      "inputs": [
        {
          "internalType": "uint256",
          "name": "",
          "type": "uint256"
        }
      ],
      "name": "tasks",
      "outputs": [
        {
          "internalType": "uint256",
          "name": "id",
          "type": "uint256"
        },
        {
          "internalType": "string",
          "name": "content",
          "type": "string"
        },
        {
          "internalType": "bool",
          "name": "completed",
          "type": "bool"
        }
      ],
      "stateMutability": "view",
      "type": "function"
    },
    {
      "inputs": [
        {
          "internalType": "uint256",
          "name": "_id",
          "type": "uint256"
        }
      ],
      "name": "toggleItem",
      "outputs": [],
      "stateMutability": "nonpayable",
      "type": "function"
    }
  ],
  "bytecode": "0x608060405260006001553480156200001657600080fd5b50620000626040518060400160405280601481526020017f4465706c6f79696e67206120546f646f4c6973740000000000000000000000008152506200006860201b6200051e1760201c565b620001fc565b62000108816040516024016200007f919062000175565b6040516020818303038152906040527f41304fac000000000000000000000000000000000000000000000000000000007bffffffffffffffffffffffffffffffffffffffffffffffffffffffff19166020820180517bffffffffffffffffffffffffffffffffffffffffffffffffffffffff83818316178352505050506200010b60201b60201c565b50565b60008151905060006a636f6e736f6c652e6c6f679050602083016000808483855afa5050505050565b6000620001418262000199565b6200014d8185620001a4565b93506200015f818560208601620001b5565b6200016a81620001eb565b840191505092915050565b6000602082019050818103600083015262000191818462000134565b905092915050565b600081519050919050565b600082825260208201905092915050565b60005b83811015620001d5578082015181840152602081019050620001b8565b83811115620001e5576000848401525b50505050565b6000601f19601f8301169050919050565b610bc3806200020c6000396000f3fe608060405234801561001057600080fd5b50600436106100575760003560e01c80631fcb98da1461005c578063470a8aef1461008c57806358671730146100a85780638d977672146100c6578063ab634862146100f8575b600080fd5b61007660048036038101906100719190610764565b610114565b60405161008391906108ad565b60405180910390f35b6100a660048036038101906100a19190610723565b6101f7565b005b6100b06102ce565b6040516100bd91906108cf565b60405180910390f35b6100e060048036038101906100db9190610764565b6102d4565b6040516100ef93929190610913565b60405180910390f35b610112600480360381019061010d9190610764565b610393565b005b61011c6105e0565b6000808381526020019081526020016000206040518060600160405290816000820154815260200160018201805461015390610a2c565b80601f016020809104026020016040519081016040528092919081815260200182805461017f90610a2c565b80156101cc5780601f106101a1576101008083540402835291602001916101cc565b820191906000526020600020905b8154815290600101906020018083116101af57829003601f168201915b505050505081526020016002820160009054906101000a900460ff1615151515815250509050919050565b60405180606001604052806001548152602001828152602001600015158152506000806001548152602001908152602001600020600082015181600001556020820151816001019080519060200190610251929190610603565b5060408201518160020160006101000a81548160ff0219169083151502179055509050507f1eea806ee4816ea054c4e49a7846de9d47bd348046dfaa28281c809dd10e269c6001548260006040516102ab93929190610913565b60405180910390a1600160008154809291906102c690610a8f565b919050555050565b60015481565b60006020528060005260406000206000915090508060000154908060010180546102fd90610a2c565b80601f016020809104026020016040519081016040528092919081815260200182805461032990610a2c565b80156103765780601f1061034b57610100808354040283529160200191610376565b820191906000526020600020905b81548152906001019060200180831161035957829003601f168201915b5050505050908060020160009054906101000a900460ff16905083565b6000806000838152602001908152602001600020604051806060016040529081600082015481526020016001820180546103cc90610a2c565b80601f01602080910402602001604051908101604052809291908181526020018280546103f890610a2c565b80156104455780601f1061041a57610100808354040283529160200191610445565b820191906000526020600020905b81548152906001019060200180831161042857829003601f168201915b505050505081526020016002820160009054906101000a900460ff1615151515815250509050806040015115816040019015159081151581525050806000808481526020019081526020016000206000820151816000015560208201518160010190805190602001906104b9929190610603565b5060408201518160020160006101000a81548160ff0219169083151502179055509050507fb50a16255ec610e07f1e0b3a7b9aa1d91e047f81010699695a0cbea58f5d2ba08282604001516040516105129291906108ea565b60405180910390a15050565b6105b481604051602401610532919061088b565b6040516020818303038152906040527f41304fac000000000000000000000000000000000000000000000000000000007bffffffffffffffffffffffffffffffffffffffffffffffffffffffff19166020820180517bffffffffffffffffffffffffffffffffffffffffffffffffffffffff83818316178352505050506105b7565b50565b60008151905060006a636f6e736f6c652e6c6f679050602083016000808483855afa5050505050565b604051806060016040528060008152602001606081526020016000151581525090565b82805461060f90610a2c565b90600052602060002090601f0160209004810192826106315760008555610678565b82601f1061064a57805160ff1916838001178555610678565b82800160010185558215610678579182015b8281111561067757825182559160200191906001019061065c565b5b5090506106859190610689565b5090565b5b808211156106a257600081600090555060010161068a565b5090565b60006106b96106b484610976565b610951565b9050828152602081018484840111156106d157600080fd5b6106dc8482856109ea565b509392505050565b600082601f8301126106f557600080fd5b81356107058482602086016106a6565b91505092915050565b60008135905061071d81610b76565b92915050565b60006020828403121561073557600080fd5b600082013567ffffffffffffffff81111561074f57600080fd5b61075b848285016106e4565b91505092915050565b60006020828403121561077657600080fd5b60006107848482850161070e565b91505092915050565b610796816109d4565b82525050565b6107a5816109d4565b82525050565b60006107b6826109a7565b6107c081856109b2565b93506107d08185602086016109f9565b6107d981610b65565b840191505092915050565b60006107ef826109a7565b6107f981856109c3565b93506108098185602086016109f9565b61081281610b65565b840191505092915050565b6000606083016000830151610835600086018261086d565b506020830151848203602086015261084d82826107ab565b9150506040830151610862604086018261078d565b508091505092915050565b610876816109e0565b82525050565b610885816109e0565b82525050565b600060208201905081810360008301526108a581846107e4565b905092915050565b600060208201905081810360008301526108c7818461081d565b905092915050565b60006020820190506108e4600083018461087c565b92915050565b60006040820190506108ff600083018561087c565b61090c602083018461079c565b9392505050565b6000606082019050610928600083018661087c565b818103602083015261093a81856107e4565b9050610949604083018461079c565b949350505050565b600061095b61096c565b90506109678282610a5e565b919050565b6000604051905090565b600067ffffffffffffffff82111561099157610990610b36565b5b61099a82610b65565b9050602081019050919050565b600081519050919050565b600082825260208201905092915050565b600082825260208201905092915050565b60008115159050919050565b6000819050919050565b82818337600083830152505050565b60005b83811015610a175780820151818401526020810190506109fc565b83811115610a26576000848401525b50505050565b60006002820490506001821680610a4457607f821691505b60208210811415610a5857610a57610b07565b5b50919050565b610a6782610b65565b810181811067ffffffffffffffff82111715610a8657610a85610b36565b5b80604052505050565b6000610a9a826109e0565b91507fffffffffffffffffffffffffffffffffffffffffffffffffffffffffffffffff821415610acd57610acc610ad8565b5b600182019050919050565b7f4e487b7100000000000000000000000000000000000000000000000000000000600052601160045260246000fd5b7f4e487b7100000000000000000000000000000000000000000000000000000000600052602260045260246000fd5b7f4e487b7100000000000000000000000000000000000000000000000000000000600052604160045260246000fd5b6000601f19601f8301169050919050565b610b7f816109e0565b8114610b8a57600080fd5b5056fea2646970667358221220803f339ef403ed043cee63190ceb4dbc47d3e0392cae549abc0f06cb0355eca264736f6c63430008040033",
  "linkReferences": {},
  "deployedLinkReferences": {}
}